{
    "contractName": "EkokyContract",
    "abi": [
        {
            "inputs": [],
            "stateMutability": "nonpayable",
            "type": "constructor"
        },
        {
            "anonymous": false,
            "inputs": [
                {
                    "indexed": false,
                    "internalType": "uint256",
                    "name": "id",
                    "type": "uint256"
                },
                {
                    "indexed": false,
                    "internalType": "uint256",
                    "name": "interested",
                    "type": "uint256"
                },
                {
                    "indexed": false,
                    "internalType": "string",
                    "name": "name",
                    "type": "string"
                },
                {
                    "indexed": false,
                    "internalType": "string",
                    "name": "objective",
                    "type": "string"
                },
                {
                    "indexed": false,
                    "internalType": "string",
                    "name": "location",
                    "type": "string"
                },
                {
                    "indexed": false,
                    "internalType": "string",
                    "name": "email",
                    "type": "string"
                },
                {
                    "indexed": false,
                    "internalType": "string",
                    "name": "phone",
                    "type": "string"
                },
                {
                    "indexed": false,
                    "internalType": "uint256",
                    "name": "createdAt",
                    "type": "uint256"
                },
                {
                    "indexed": false,
                    "internalType": "uint256",
                    "name": "price",
                    "type": "uint256"
                }
            ],
            "name": "OfferCreated",
            "type": "event"
        },
        {
            "anonymous": false,
            "inputs": [
                {
                    "indexed": false,
                    "internalType": "uint256",
                    "name": "id",
                    "type": "uint256"
                },
                {
                    "indexed": false,
                    "internalType": "uint256",
                    "name": "interested",
                    "type": "uint256"
                }
            ],
            "name": "OfferIncrementInterested",
            "type": "event"
        },
        {
            "inputs": [
                {
                    "internalType": "uint256",
                    "name": "_interested",
                    "type": "uint256"
                },
                {
                    "internalType": "string",
                    "name": "_name",
                    "type": "string"
                },
                {
                    "internalType": "string",
                    "name": "_objective",
                    "type": "string"
                },
                {
                    "internalType": "string",
                    "name": "_location",
                    "type": "string"
                },
                {
                    "internalType": "string",
                    "name": "_email",
                    "type": "string"
                },
                {
                    "internalType": "string",
                    "name": "_phone",
                    "type": "string"
                },
                {
                    "internalType": "uint256",
                    "name": "_price",
                    "type": "uint256"
                }
            ],
            "name": "createOffer",
            "outputs": [],
            "stateMutability": "nonpayable",
            "type": "function"
        },
        {
            "inputs": [
                {
                    "internalType": "uint256",
                    "name": "_id",
                    "type": "uint256"
                }
            ],
            "name": "incrementInterested",
            "outputs": [],
            "stateMutability": "nonpayable",
            "type": "function"
        },
        {
            "inputs": [
                {
                    "internalType": "uint256",
                    "name": "",
                    "type": "uint256"
                }
            ],
            "name": "offers",
            "outputs": [
                {
                    "internalType": "uint256",
                    "name": "id",
                    "type": "uint256"
                },
                {
                    "internalType": "uint256",
                    "name": "interested",
                    "type": "uint256"
                },
                {
                    "internalType": "string",
                    "name": "name",
                    "type": "string"
                },
                {
                    "internalType": "string",
                    "name": "objective",
                    "type": "string"
                },
                {
                    "internalType": "string",
                    "name": "location",
                    "type": "string"
                },
                {
                    "internalType": "string",
                    "name": "email",
                    "type": "string"
                },
                {
                    "internalType": "string",
                    "name": "phone",
                    "type": "string"
                },
                {
                    "internalType": "uint256",
                    "name": "createdAt",
                    "type": "uint256"
                },
                {
                    "internalType": "uint256",
                    "name": "price",
                    "type": "uint256"
                }
            ],
            "stateMutability": "view",
            "type": "function"
        },
        {
            "inputs": [],
            "name": "offersCounter",
            "outputs": [
                {
                    "internalType": "uint256",
                    "name": "",
                    "type": "uint256"
                }
            ],
            "stateMutability": "view",
            "type": "function"
        }
    ],
    "bytecode": "6080604052600080553480156200001557600080fd5b506200011d60006040518060400160405280601881526020017f506c6179612064656c206361726d656e206368617269747900000000000000008152506040518060400160405280601c81526020017f436f6c6c656374696e6720666f6f6420666f72206368696c6472656e000000008152506040518060400160405280601281526020017154756c756d202331333337204d657869636f60701b8152506040518060400160405280601481526020017f5044434368617269747940676d61696c2e636f6d0000000000000000000000008152506040518060400160405280600d81526020016c3031322033323220323320343960981b81525060036200012360201b60201c565b62000487565b60008054908062000134836200033f565b909155505060408051610120810182526000805480835260208084018c81528486018c8152606086018c9052608086018b905260a086018a905260c086018990524260e087015261010086018890529284526001808352959093208451815592519483019490945551805192939192620001b5926002850192019062000299565b5060608201518051620001d391600384019160209091019062000299565b5060808201518051620001f191600484019160209091019062000299565b5060a082015180516200020f91600584019160209091019062000299565b5060c082015180516200022d91600684019160209091019062000299565b5060e08201516007820155610100909101516008909101556000546040517f8c888070580f9ce0318496771e8ac4c1553cf844583a4f6469741901ef4ce1a99162000288918a908a908a908a908a908a9042908b90620003b7565b60405180910390a150505050505050565b828054620002a7906200044b565b90600052602060002090601f016020900481019282620002cb576000855562000316565b82601f10620002e657805160ff191683800117855562000316565b8280016001018555821562000316579182015b8281111562000316578251825591602001919060010190620002f9565b506200032492915062000328565b5090565b5b8082111562000324576000815560010162000329565b6000600182016200036057634e487b7160e01b600052601160045260246000fd5b5060010190565b6000815180845260005b818110156200038f5760208185018101518683018201520162000371565b81811115620003a2576000602083870101525b50601f01601f19169290920160200192915050565b60006101208b83528a6020840152806040840152620003d98184018b62000367565b90508281036060840152620003ef818a62000367565b9050828103608084015262000405818962000367565b905082810360a08401526200041b818862000367565b905082810360c084015262000431818762000367565b60e084019590955250506101000152979650505050505050565b600181811c908216806200046057607f821691505b6020821081036200048157634e487b7160e01b600052602260045260246000fd5b50919050565b610cf380620004976000396000f3fe608060405234801561001057600080fd5b506004361061004c5760003560e01c806345f79a801461005157806369fd925f146100665780638a72ea6a14610082578063bee6fc51146100aa575b600080fd5b61006461005f366004610a87565b6100bd565b005b61006f60005481565b6040519081526020015b60405180910390f35b610095610090366004610b6c565b610225565b60405161007999989796959493929190610bd2565b6100646100b8366004610b6c565b610515565b6000805490806100cc83610c5c565b909155505060408051610120810182526000805480835260208084018c81528486018c8152606086018c9052608086018b905260a086018a905260c086018990524260e08701526101008601889052928452600180835295909320845181559251948301949094555180519293919261014b926002850192019061094b565b506060820151805161016791600384019160209091019061094b565b506080820151805161018391600484019160209091019061094b565b5060a0820151805161019f91600584019160209091019061094b565b5060c082015180516101bb91600684019160209091019061094b565b5060e08201516007820155610100909101516008909101556000546040517f8c888070580f9ce0318496771e8ac4c1553cf844583a4f6469741901ef4ce1a991610214918a908a908a908a908a908a9042908b90610bd2565b60405180910390a150505050505050565b600160208190526000918252604090912080549181015460028201805491929161024e90610c83565b80601f016020809104026020016040519081016040528092919081815260200182805461027a90610c83565b80156102c75780601f1061029c576101008083540402835291602001916102c7565b820191906000526020600020905b8154815290600101906020018083116102aa57829003601f168201915b5050505050908060030180546102dc90610c83565b80601f016020809104026020016040519081016040528092919081815260200182805461030890610c83565b80156103555780601f1061032a57610100808354040283529160200191610355565b820191906000526020600020905b81548152906001019060200180831161033857829003601f168201915b50505050509080600401805461036a90610c83565b80601f016020809104026020016040519081016040528092919081815260200182805461039690610c83565b80156103e35780601f106103b8576101008083540402835291602001916103e3565b820191906000526020600020905b8154815290600101906020018083116103c657829003601f168201915b5050505050908060050180546103f890610c83565b80601f016020809104026020016040519081016040528092919081815260200182805461042490610c83565b80156104715780601f1061044657610100808354040283529160200191610471565b820191906000526020600020905b81548152906001019060200180831161045457829003601f168201915b50505050509080600601805461048690610c83565b80601f01602080910402602001604051908101604052809291908181526020018280546104b290610c83565b80156104ff5780601f106104d4576101008083540402835291602001916104ff565b820191906000526020600020905b8154815290600101906020018083116104e257829003601f168201915b5050505050908060070154908060080154905089565b60008181526001602081815260408084208151610120810183528154815293810154928401929092526002820180549184019161055190610c83565b80601f016020809104026020016040519081016040528092919081815260200182805461057d90610c83565b80156105ca5780601f1061059f576101008083540402835291602001916105ca565b820191906000526020600020905b8154815290600101906020018083116105ad57829003601f168201915b505050505081526020016003820180546105e390610c83565b80601f016020809104026020016040519081016040528092919081815260200182805461060f90610c83565b801561065c5780601f106106315761010080835404028352916020019161065c565b820191906000526020600020905b81548152906001019060200180831161063f57829003601f168201915b5050505050815260200160048201805461067590610c83565b80601f01602080910402602001604051908101604052809291908181526020018280546106a190610c83565b80156106ee5780601f106106c3576101008083540402835291602001916106ee565b820191906000526020600020905b8154815290600101906020018083116106d157829003601f168201915b5050505050815260200160058201805461070790610c83565b80601f016020809104026020016040519081016040528092919081815260200182805461073390610c83565b80156107805780601f1061075557610100808354040283529160200191610780565b820191906000526020600020905b81548152906001019060200180831161076357829003601f168201915b5050505050815260200160068201805461079990610c83565b80601f01602080910402602001604051908101604052809291908181526020018280546107c590610c83565b80156108125780601f106107e757610100808354040283529160200191610812565b820191906000526020600020905b8154815290600101906020018083116107f557829003601f168201915b5050505050815260200160078201548152602001600882015481525050905080602001805180919061084390610c5c565b905260208083019182526000848152600180835260409182902085518155935190840155830151805184939261088092600285019291019061094b565b506060820151805161089c91600384019160209091019061094b565b50608082015180516108b891600484019160209091019061094b565b5060a082015180516108d491600584019160209091019061094b565b5060c082015180516108f091600684019160209091019061094b565b5060e082015160078201556101009091015160089091015560208082015160408051858152928301919091527f7f415dbd3546ec80b5fc8b2aecff70c4bd406d36ed70045362cadb1105d27cb7910160405180910390a15050565b82805461095790610c83565b90600052602060002090601f01602090048101928261097957600085556109bf565b82601f1061099257805160ff19168380011785556109bf565b828001600101855582156109bf579182015b828111156109bf5782518255916020019190600101906109a4565b506109cb9291506109cf565b5090565b5b808211156109cb57600081556001016109d0565b634e487b7160e01b600052604160045260246000fd5b600082601f830112610a0b57600080fd5b813567ffffffffffffffff80821115610a2657610a266109e4565b604051601f8301601f19908116603f01168101908282118183101715610a4e57610a4e6109e4565b81604052838152866020858801011115610a6757600080fd5b836020870160208301376000602085830101528094505050505092915050565b600080600080600080600060e0888a031215610aa257600080fd5b87359650602088013567ffffffffffffffff80821115610ac157600080fd5b610acd8b838c016109fa565b975060408a0135915080821115610ae357600080fd5b610aef8b838c016109fa565b965060608a0135915080821115610b0557600080fd5b610b118b838c016109fa565b955060808a0135915080821115610b2757600080fd5b610b338b838c016109fa565b945060a08a0135915080821115610b4957600080fd5b50610b568a828b016109fa565b92505060c0880135905092959891949750929550565b600060208284031215610b7e57600080fd5b5035919050565b6000815180845260005b81811015610bab57602081850181015186830182015201610b8f565b81811115610bbd576000602083870101525b50601f01601f19169290920160200192915050565b60006101208b83528a6020840152806040840152610bf28184018b610b85565b90508281036060840152610c06818a610b85565b90508281036080840152610c1a8189610b85565b905082810360a0840152610c2e8188610b85565b905082810360c0840152610c428187610b85565b60e084019590955250506101000152979650505050505050565b600060018201610c7c57634e487b7160e01b600052601160045260246000fd5b5060010190565b600181811c90821680610c9757607f821691505b602082108103610cb757634e487b7160e01b600052602260045260246000fd5b5091905056fea2646970667358221220843d62078c57511576476b5e80a3c255f82dc291b8fb40c9b541a56a316031b164736f6c634300080e0033",
    "sourcePath": "/home/codedrifter/ekoky/contracts/EkokyContract.sol",
    "compiler": {
        "name": "solc",
        "version": "0.8.14+commit.80d49f37"
    },
    "functionHashes": {
        "createOffer(uint256,string,string,string,string,string,uint256)": "45f79a80",
        "incrementInterested(uint256)": "bee6fc51",
        "offers(uint256)": "8a72ea6a",
        "offersCounter()": "69fd925f"
    },
    "gasEstimates": {
        "creation": {
            "codeDepositCost": "663000",
            "executionCost": "infinite",
            "totalCost": "infinite"
        },
        "external": {
            "createOffer(uint256,string,string,string,string,string,uint256)": "infinite",
            "incrementInterested(uint256)": "infinite",
            "offers(uint256)": "infinite",
            "offersCounter()": "2284"
        }
    }
}